:020000040800F2
:100000005044002045030008214E0008593F0008D5
:1000100049460008E11E0008A96D00080000000024
:10002000000000000000000000000000790200084D
:10003000311F000800000000BD02000851650008E3
:100040005F0300085F0300085F0300085F03000808
:100050005F0300085F0300085F0300080120000839
:100060005F0300085F030008072000085F03000823
:100070005F0300085F0300085F0300085F030008D8
:100080005F0300085F0300085F0300085F030008C8
:100090005F0300085F0300085F0300085F030008B8
:1000A0005F030008016600085F0300085F030008A3
:1000B0000D66000819660008256600085F03000841
:1000C0005F0300085F0300085F0300085F03000888
:1000D0005F030008956D00085F0300085F030008D8
:1000E0005F0300085F0300085F03000800F002F8E8
:1000F00000F0B2F80AA090E8000C82448344AAF110
:100100000107DA4501D100F0A7F8AFF2090EBAE80D
:100110000F0013F0010F18BFFB1A43F0010318473B
:10012000A8E90000C8E900000A444FF0000C10F8EC
:10013000013B13F0070408BF10F8014B1D1108BF65
:1001400010F8015B641E05D010F8016B641E01F805
:10015000016BF9D113F0080F1EBF10F8014BAD1C55
:100160000C1B09D16D1E58BF01F801CBFAD505E073
:1001700014F8016B01F8016B6D1EF9D59142D6D3CD
:10018000704700000023002400250026103A28BFF5
:1001900078C1FBD8520728BF30C148BF0B607047F9
:1001A0006E2900F07F82702900F0C18366290AF071
:1001B000708465290AF06D8467290AF06A846129D0
:1001C0000AF0698403681B0A28BF41F0800169298D
:1001D00000F02C82642900F02982752900F0268223
:1001E0006F2900F04E83782900F08D83E92900F013
:1001F000E982E42900F0E682F52900F0E382EF29A4
:1002000000F04B83F82900F08C830368DB0928BFDA
:1002100041F08001632901F0E780732901F0EC804F
:10022000E32901F0F780F32901F0FC8000207047FA
:100230001FB500F0CEF801F04BF9040000200021BA
:1002400009F09AFC401C60600020002109F07EFC4F
:10025000E0601FBD10B510BD01F00CF91146FFF7AD
:10026000E7FF07F059FB01F0E9F903B4FFF7F2FFEC
:1002700003BC01F0EDF90000224B19680868B0E8F2
:10028000F00F80F30988BFF36F8F4FF0000080F309
:1002900011884EF00D0E70470000000006480068FF
:1002A000006880F3088862B661B6BFF34F8FBFF372
:1002B0006F8F00DF00BF00BF08ED00E0EFF30980A3
:1002C000BFF36F8F0F4B1A6820E9F00F106008B56D
:1002D0004FF0500080F31188BFF34F8FBFF36F8F43
:1002E00008F022FF4FF0000080F31188BDE80840BD
:1002F00019680868B0E8F00F80F30988BFF36F8FC2
:10030000704700BFCC010020EFF30580704700006C
:100310000B49D1F800C04A685CF8043B10681844E7
:1003200042F8040B8C4528BFA1F1DC0C8A4228BF9F
:10033000A1F1DC02C1F800C04A6020F00040704723
:10034000E83D00200948804709480047FEE7FEE7EE
:10035000FEE7FEE7FEE7FEE7FEE7FEE7FEE7FEE775
:1003600004480549054A064B70470000FF65000830
:10037000ED000008503E0020504400205040002076
:10038000504000201CB50C46064B7B44694600904B
:10039000204600F0A0F904460020694600F0AEF9BE
:1003A00020461CBD6F0300000B4910B5A1F17C0273
:1003B0000A4CC2E93712372106E000EB104342F83D
:1003C0002130074B00FB03400B1EA1F10101F4DCBF
:1003D00010BD0120E8E70000883D0020E119D66645
:1003E000CD0D0100032A40F2308010F0030C00F024
:1003F000158011F8013BBCF1020F624498BF11F85F
:1004000001CB00F8013B38BF11F8013BA2F1040217
:1004100098BF00F801CB38BF00F8013B11F003038F
:1004200000F05483083AC0F0088051F8043B083AC1
:1004300051F804CBA0E80810F5E7121D5CBF51F895
:10044000043B40F8043BAFF30080D20724BF11F80F
:10045000013B11F801CB48BF11F8012B24BF00F874
:10046000013B00F801CB48BF00F8012B704702F0B8
:10047000FF0343EA032242EA024200F05BBB4FF073
:10048000000200B5134694469646203922BFA0E8E4
:100490000C50A0E80C50B1F12001BFF4F7AF0907F0
:1004A00028BFA0E80C5048BF0CC05DF804EB8900E1
:1004B00028BF40F8042B08BF704748BF20F8022B24
:1004C00011F0804F18BF00F8012B70474FF0013C2E
:1004D00050F8042B51F8043B9A4221D1A2EB0C03B3
:1004E000934313EACC1317D150F8042B51F8043B73
:1004F0009A4215D1A2EB0C03934313EACC130BD110
:1005000050F8042B51F8043B9A4209D1A2EB0C039A
:10051000934313EACC13DBD04FF00000704700BFC9
:10052000D01A01BAB1FA81F101F0180122FA01F0F2
:10053000CB40C1F12001DBB2C0B2C01A2CFA01F3EA
:10054000D11A914311EAC311E6D170477047704741
:10055000704710B500F00EFB006810BD10B50446E2
:1005600000F008FB046010BD70B5044685690068A2
:10057000C10601D5302600E02026C00707D070BD97
:10058000D4E9012130469047206A401C20626D1E4C
:10059000F6D570BD70B5044685690078C00707D1EF
:1005A00070BDD4E9012120209047206A401C2062C0
:1005B0006D1EF6D570BD09684A0501D540B2704779
:1005C000C905FCD500B2704709684A0501D5C0B21B
:1005D0007047C905FCD580B2704770B50C4605461A
:1005E000012A05D02878800600D5EA69002302E0B8
:1005F000012305E05B1C934202D2E05C0028F9D1A4
:10060000A869E618C01AA861286A18442862284612
:10061000FFF7AAFF04E0D5E9012114F8010B904788
:10062000B442F8D32846FFF7B5FF70BD2DE9F0417D
:100630000646002410687529314616A510D0FFF72C
:10064000BAFF002802DA404213A507E031688A07A2
:1006500001D512A502E0490704D511A5012401E046
:10066000FFF7B2FF00210A2206F1240709E0B0FBE0
:10067000F2FCB0FBF2F302FB1C0030307854184659
:10068000491C0028F3D123462A463046BDE8F041F4
:1006900000F0B9BA000000002D0000002B0000009F
:1006A0002000000011680268006A530501D5087037
:1006B0000AE0D30501D5088006E0130603D5C2176A
:1006C000C1E9000200E008600120704701694A1C8E
:1006D00002610878704700B58FB0CDE90131002183
:1006E000059105497944CDE903101146684600F0AB
:1006F00029F90FB000BD0000E5FFFFFF0A6802F80E
:10070000010B0A60704700002DE9FF5F15468A461D
:100710000446DFF8AC80F8440027D8E900103E46D4
:10072000CDE9001010E03AF816106A4602A800F071
:100730007DFE411C07D02178890603D5E26939186E
:1007400091420DD80744761C2078800602D5E069D6
:10075000B84205DDAE42E6DB3AF816000028E2D1E9
:10076000A069C01BA0612046FFF7FEFED8E900107B
:10077000CDE90010002017E03AF818106A4602A8E8
:1007800000F054FEB0F1FF3F81460BD000250DF183
:10079000080B05E0D4E901211BF8050090476D1C0A
:1007A0004D45F7D308F10100B0428046E4DB206AF2
:1007B000384420622046FFF7EDFEBDE8FF9F0000B1
:1007C00082E100002DE9F0418046D21D22F00702AF
:1007D0000025D2E90002F52915A614D0011E72F1F8
:1007E000000106DA0023D0EB030063EB020211A63E
:1007F00008E0D8F800108B0701D50FA602E04907E2
:1008000001D50EA601251146002408F1240704E0B5
:1008100000F0B4F930323A55641C50EA0102F7D1C5
:100820002B46324621464046BDE8F04100F0EBB988
:10083000000000002D0000002B0000002000000040
:1008400030B4002100F1240408E002F00705D208CA
:10085000303542EA4372DB086554491C52EA03050D
:10086000F3D10468002310A2250707D5A40600D4FD
:1008700021B1C46901230DA2641EC46130BC00F023
:10088000C2B910B5044621461068FFF79DFE024626
:100890002046BDE810400023D2E7D21D22F0070118
:1008A000D1E90023CCE70000000000003000000088
:1008B000F0B40D460188090502D5214C7C4402E0C4
:1008C0001F4C7C440E34002100F1240608E002F0A5
:1008D0000F071209E75D42EA03721B097754491CAE
:1008E00052EA0307F3D102780023120704D5702DD2
:1008F00006D009B1022311342246F0BC00F083B9BE
:1009000001231034F8E770B504460D4621461068FF
:10091000FFF75AFE024629462046BDE870400023F4
:10092000C6E7D21D22F00703D3E90023C0E703681E
:10093000126843F0200303600823C3610023B7E774
:10094000E4DF00002DE9F05F894604464FF0000A1D
:10095000DFF874B1FB44C0F820A02046E168884766
:10096000002874D0252806D0D4E901219047206AB8
:10097000401C2062F1E700265F462046E168884778
:100980002028054607DB312D05D2781910F8200CF8
:1009900008B10643F1E7B00701D526F00406C4F814
:1009A0001CA00027C4F818A02A2D09D0284606F05C
:1009B0005FFD38B304EB8708303DC8F8185019E0E4
:1009C00059F8041B204604EB87029161E1688847CF
:1009D000012F054618D1E069002820DA26F020060C
:1009E0001DE0D8F8180000EB800005EB400030381F
:1009F000C8F818002046E1688847054606F038FD2B
:100A00000028EED1012F0AD02E2D08D12046E16812
:100A100088477F1C0546022F46F02006C4DBA069EC
:100A2000002803DA404246F00106A061F00701D039
:100A300026F010066C2D0BD0682D09D04C2D39D026
:100A40006A2D35D0742D35D07A2D33D016E038E0AC
:100A5000E1682F4620468847B842054609D16C2FE9
:100A600026D04FF48060E16806432046884705465B
:100A700004E06C2F1AD04FF4807006430DB3A5F13B
:100A80004100192802D8203546F400664A46294616
:100A9000204626604E46FFF783FB80B101280BD02D
:100AA000F61D26F0070000F1080956E74020E4E7AC
:100AB0008020D8E70020D6E706F104094DE7284654
:100AC00052E7206ABDE8F09F74DF000010B5203ABD
:100AD000C0F00B80B1E81850203AA0E81850B1E8F7
:100AE0001850A0E81850BFF4F5AF5FEA027C24BFAD
:100AF000B1E81850A0E8185044BF18C918C0BDE8A4
:100B000010405FEA827C24BF51F8043B40F8043B6C
:100B100008BF7047D20728BF31F8023B48BF11F821
:100B2000012B28BF20F8023B48BF00F8012B70477B
:100B30004FF000020429C0F0128010F0030C3FF4C3
:100B4000A0ACCCF1040CBCF1020F18BF00F8012BD3
:100B5000A8BF20F8022BA1EB0C01FFF792BC5FEAC3
:100B6000C17C24BF00F8012B00F8012B48BF00F81E
:100B7000012B704700487047F03D002030B5B0F1C0
:100B80000A024FEA900E71F100034EEA817EB0EB4B
:100B90000E0061EB91014FEA101E4EEA017E10EB50
:100BA0000E0041EB11114FEA102E4EEA016E10EBD0
:100BB0000E0041EB11214FEA104E4EEA014E10EBB0
:100BC0000E0041EB1141401841F100014FEAD00005
:100BD00040EA41704FEAD10110EB80054FEA8104F1
:100BE00044EA907444EB01046D1944EB0404521B75
:100BF000A3414FF0000348BF0A3200D530BD401C6E
:100C000041F1000130BD2DE9F0470D46994692466D
:100C1000044600F124080168880604D5E06921F043
:100C20001001216000E00120A84201DD471B00E027
:100C30000027A1697A1902EB0900081AA06120783F
:100C4000C00602D42046FFF78FFC002608E0D4E956
:100C500001211AF806009047206A401C761C206289
:100C60004E45F4DB2078C0060AD52046FFF77CFC11
:100C700006E0D4E9012130209047206A401C206220
:100C8000381EA7F10107F4DC07E0D4E9012118F8C8
:100C900005009047206A401C2062281EA5F101052E
:100CA000F3DC2046FFF776FC2078000602D5022010
:100CB000BDE8F0870120FBE770472DE9FF4F0C46A8
:100CC0001E464FF0FF378BB0D2E90001DDF860809F
:100CD0000A908A46C1F30A5505B93D4600210846E7
:100CE0004FF00000BAF1000F00F4400005DA00EB0D
:100CF00080004FF4400101EA50004FEA9059B9F1E9
:100D0000010F00DDB9460A9850EA4A000ED044F6B9
:100D10001050A5F2FF3545432F14B8F1000F1ED037
:100D20007542291E1EDDC9F100021CE0B8F1010F59
:100D30004FF0000001D0302103E0F24305E02154E0
:100D4000401CB042FBDB30460022002121540B99AD
:100D5000C1F80880C1E900200FB0BDE8F08FBD1BCD
:100D60006D1CDEE74A4600DA694206A800F0F4FB93
:100D700006AB93E8070003AB83E8070050460A99E7
:100D800000F06CFC8DE80700A0F500501F380090C3
:100D90000398002D0ADD42F21F014A460844002351
:100DA00003A90390684600F0D5FE09E0A0F50050C5
:100DB0004A461F38002303A90390684600F0DFFE6F
:100DC0008DE807000004000C03D04FF0FF3041080D
:100DD00000E01046B8F1000F03D000220092154643
:100DE0001EE0751E05D4FFF7C9FE303262556D1E38
:100DF000F9D5B3460122084302D000227F1C04E04B
:100E00002078302801D100227F1E002A099784D043
:100E10001DE0112D07DAFFF7B1FE303262556D1C6F
:100E200050EA0102F5D1084302D00098C8B10EE0A3
:100E30000021681E05E0235C625C63542254401E5E
:100E4000491C8142F7DBAB46A81B401E09900020DD
:100E500004F80B000B98099AC0F80880C0E9002B31
:100E60007AE711264FF0000857E72DE9F04F884642
:100E70000446D21D22F0070191B0D1E90001CDE96D
:100E80000A0105F092FF02460B98C00F01D02D20F9
:100E900007E02068810701D52B2002E0202101EA2C
:100EA000C000032A099001D0072A05DB034641460A
:100EB000204600F011FB0BE12078800601D5E069A7
:100EC00000E00620B8F1650F814606D0B8F1660F44
:100ED00018D0B8F1670F70D131E00020B9F1110FCF
:100EE000009001DB112301E009F101030AAA01A925
:100EF0000CA8FFF7E2FEDDE90C70002609F1010500
:100F0000834647E001204B4600904FF000470AAA75
:100F100001A90CA8FFF7D1FEDDE90DB00C995D46E3
:100F2000002610B909F101000D18B9EB050003D432
:100F3000C0F1FF3609F10105A5EB09002BE0B9F17D
:100F4000010F01DA4FF001090020B9F1110F0090F3
:100F5000484601DD112300E003460AAA01A90CA8B6
:100F6000FFF7ABFEDDE90C704D4600268346207886
:100F700000070AD4AB4500DA5D4601A8012D04DD67
:100F8000411911F8011C302907D04F4502DA17F139
:100F9000040F04DA012082460FE06D1EEEE7002FF9
:100FA00002DCED1B3E4403E0781CA84200DD7D1C02
:100FB000B81B00F1010A4FF000472078000703D466
:100FC000AA4501DB4FF0FF3A0021B7F1004F0DF1C8
:100FD00043088DF8431024D002202B23002F01DA80
:100FE0007F422D230A21021EA0F1010000DC5FB127
:100FF00097FBF1FC97FBF1F201FB1C7C17460CF10F
:10100000300C08F801CDEEE7A8F10100037021884B
:10101000090501D5452100E06521A0F1010800F88E
:10102000011C09980FA9A1EB0807FF1D00B10120C1
:10103000411901EBEA70A1693844081A401EA06109
:101040002078C00602D42046FFF78EFA099828B10E
:10105000D4E901219047206A401C20622078C00614
:1010600022D52046FFF780FA1EE0002E04DBB345B0
:1010700002DD01A8805D00E03020D4E90121904725
:10108000206A401C2062761CAAF101005FEA000A77
:101090000AD100F01DFAC0680168405CD4E9012162
:1010A0009047206A401C2062281EA5F10105DCDC67
:1010B00007E0D4E9012118F8010B9047206A401C91
:1010C0002062381EA7F10107F3DC2046FFF762FA21
:1010D000032011B041E600002DE9F04F04460D4613
:1010E000D21D22F0070089B0D0E900974846394662
:1010F00005F05BFE0246F80F01D02D2307E02068C3
:10110000810701D52B2302E0202101EAC0038DF8DD
:1011100020300BB1012000E00020032A824601D0DC
:10112000072A04DB2946204600F0D6F93FE1207863
:10113000800601D40D2500E0E569C7F30A560D2DA0
:1011400049DA00214FEA175B08464FF00000002FF4
:1011500000F4400007DA00EB80004FF4400100EBA0
:10116000D07001EA60008115012901DD4FF0FF31E7
:1011700000224FEA850CBCF1180F06D31346ACF1E0
:1011800018004FF08052C24003E04FF4801323FA5E
:101190000CF30CF10C0CBCF1200F04D3ACF1200CBF
:1011A00009FA0CF001E007FA0CF000294FF00048B2
:1011B00001DD18B90FE00ED140450CD319EB02093F
:1011C0005F4121B9404502D19F4329EA0209BBEBA7
:1011D000175F00D0761C2088000502D57B48784434
:1011E00002E07A487844193808AA302302F80A3015
:1011F000037C0AF10101002E0AF1020A53546A46E7
:1012000002DC4FF0300101E04FF031014FF00108F6
:101210008DF8001002D0A6F2FF3603E059EA47012C
:1012200000D06B4E002D02DC2178090704D54FF069
:1012300002082E218DF80110C44600210BE0C7F3EF
:1012400003433F01C35C491C6D1E02F808300529A9
:1012500008F1010801DA002DF1DC00210CE000EBBF
:101260001973491C1B786D1E082902F808304FEAD3
:10127000091908F1010801DA002DF0DC21688B065C
:1012800002D516E0A8F10108E04505DD02EB0803F0
:1012900013F8013C302BF5D0B8F1000F09DD02EB5B
:1012A000080313F8013C2E2B03D1090701D4A8F140
:1012B0000108002D05DD3E2102F808106D1E08F121
:1012C0000108407C002E02F8080008F1010804DA49
:1012D0002D20764202F8080002E02B2002F80800D8
:1012E0000A214FF47A70864208F101080BDB96FB65
:1012F000F0F3303302F8083096FBF0F308F1010800
:1013000000FB136601E0642E0CDB642096FBF0F317
:10131000303302F8083096FBF0F308F1010800FBC7
:10132000136601E00A2E06DB96FBF1F0303002F87E
:10133000080008F1010896FBF1F001FB1060303065
:1013400002F80800A16908F1010808EB050202EBA8
:101350000A00081AA0612078C00602D42046FFF7D0
:1013600003F9216A08AE01EB0A00206204E0D4E927
:10137000012116F8010B9047BAF1010AF7D2207843
:10138000C00602D52046FFF7EFF86E4609E016F8D2
:10139000010B3E280FD0D4E901219047206A401C60
:1013A0002062B8F10108F2D22046FFF7F3F809B045
:1013B0000320BDE8F08F206A2844206203E0D4E9CE
:1013C0000121302090476D1EEBD3F8E731D80000A3
:1013D00002FCFFFF10B5436913B1AFF3008001E0D9
:1013E000FFF7FBF8012010BD127800F124010A700C
:1013F00000224A700122EDE711684FF0FF32E9E761
:1014000010B5436913B1AFF3008001E0FFF77CF939
:10141000012010BD128800F1240182840022C284C0
:101420000122EDE711684FF0FF32E9E770B516468B
:101430000C46054600F044F8036893F801010128C2
:1014400006D0FF2C0FD8185D68B101202C7070BD3C
:10145000D3F807013246214603F207130344284616
:10146000BDE8704018474FF0FF3070BD004870472E
:10147000F03D00207546FFF7F9FFAE4605006946CE
:10148000534620F00700854618B020B5FEF768FFE8
:10149000BDE820404FF000064FF000074FF0000875
:1014A0004FF0000B21F00701AC46ACE8C009ACE8F6
:1014B000C009ACE8C009ACE8C0098D46704700001F
:1014C00010B500F005F8001D10BD00BFAD8600008E
:1014D00000487047103E00202DE9F0411F460446A9
:1014E00003260168072A01F4006004DB08B116A591
:1014F00005E016A503E008B115A500E015A521F04B
:1015000010002060A069C01EA0610FB1401EA06144
:101510002046FFF729F84FB1D4E90121384690471A
:10152000206A401C2062C01C206206E0206AFAE7A4
:10153000D4E9012115F8010B9047761EF8D2204618
:10154000FFF728F8BDE8F0814E414E006E616E0055
:10155000494E4600696E66002DE9F0478146164601
:101560008AB0354878440DC88DE80D00324878447B
:10157000801C03AC0DC884E80D0041F69B30084484
:10158000372190FBF1F290FBF1F5A5F1800501FB0D
:1015900012041B3C02D56442012000E00020DFF869
:1015A00098A080460027FA44AAF1BE0A0EE0E007A0
:1015B0000AD03246684607EB470101230AEB810156
:1015C00000F0DDFA8DE8070064107F1C002CEED1DE
:1015D000194F7F44AE3F19E0E80715D007EB041020
:1015E0000DF1180A90E80E008AE80E00C068F0427B
:1015F00001D1981908903246012306A903A800F0EA
:10160000BEFA03AB83E807006D10641C002DE3D124
:101610004FF0010332466946B8F1000F03A802D02B
:1016200000F098FA01E000F0AAFAC9E90001C9F84F
:1016300008200AB0BDE8F0873CD5000010B504468C
:10164000AFF300802046BDE81040FEF70EBE7047A5
:1016500001491820ABBEFEE7260002005FEA400CFD
:1016600008BF91F0000F4FEA8C234FEAC12243EAF2
:1016700051514FEA1C5018BF00F5F0404FEA3000BE
:1016800018BF41F000415FEA6C5C00F02980BCF1BA
:10169000FF3F08BF40F080407047130C06BF1204A4
:1016A0004FF0100C4FF0000C130E04BF12020CF19F
:1016B000080C130F04BF12010CF1040C930F04BFAC
:1016C00092000CF1020CD30F04BF52000CF1010C7C
:1016D00011464FF00002A0F11F00A0EB0C00704774
:1016E00011F0004F08BF704731F000413FF4D5AF13
:1016F0000B0C06BF09044FF0100C4FF0000C0B0E42
:1017000004BF09020CF1080C0B0F04BF09010CF116
:10171000040C8B0F04BF89000CF1020CCB0F04BF2B
:1017200049000CF1010CCCF12003A0EB0C0022FAD3
:1017300003F302FA0CF241EA030100F101007047E1
:1017400020F07F4C80EA030023F07F47ACEB0703D7
:1017500003F57C5300F0004003F1FF032DE98049BD
:101760004FEA154B09B44FEA144325EA0B4E24EA1D
:1017700003480FF2042606EB132749083E785FEA78
:10178000320203FB0667C7F5000707FB06F64FEAC0
:1017900054374FEAD64606F1020607FB066CCCF139
:1017A000005C4FEA1C472CEA074C07FB06F40CFBD5
:1017B00006F504EB15464FEA961634BF00204FF0AD
:1017C00000404FEAD13706FB07FC4FEA1C4C0CFBEC
:1017D0000BF7D21B03FB0CF761EB07010CFB0EF7B9
:1017E000B0EB074072EB17420CFB08F734BFA2EBDB
:1017F0000742B2EB074261EB17414FEA0C444FEA54
:10180000910706FB07FC4FEA1C4C0CFB0BF7B0EBF7
:10181000C74072EB573203FB0CF734BFA2EBC74251
:10182000B2EBC74261EB57310CFB0EF7B0EBC700D0
:1018300072EB57720CFB08F734BFA2EBC702B2EB96
:10184000C70261EB5771039F4FEA816141EA921130
:1018500004EBCC044FEAD1374FEA826206FB07FC67
:1018600042EA90124FEA80604FEA1C4C0CFB0BF7E7
:10187000D21B03FB0CF761EB07010CFB0EF7B0EB7F
:10188000074072EB17420CFB08F734BFA2EB07428C
:10189000B2EB074261EB17414FEA8C554FEA9107D3
:1018A00004EB9C2406FB07FC4FEA1C4C0CFB0BF7DB
:1018B000B0EBC74072EB573203FB0CF734BFA2EB1F
:1018C000C742B2EBC74261EB57310CFB0EF7B0EBEE
:1018D000C70072EB57720CFB08F734BFA2EBC702CC
:1018E000B2EBC70261EB577115EB4C254FEA8161F2
:1018F00041EA92114FEA82624FEAD13742EA9012EE
:1019000006FB07FC44F100044FEA80604FEA1C4CE0
:101910000CFB0BF7D21B03FB0CF761EB07010CFB75
:101920000EF7B0EB074072EB17420CFB08F734BF21
:10193000A2EB0742B2EB074261EB174115EB1C1516
:101940004FEA813141EA92414FEA823242EA9042C3
:101950004FEA80304FEA0C7644F1000448EA034332
:101960004EEA0B484FF0000EB2EB080C71EB030788
:1019700024BF624639464EEB0E0E4FF0000B0018A6
:10198000524149414BEB0B0BB2EB080C71EB0307D7
:101990007BF1000B24BF624639464EEB0E0E4FF032
:1019A000000B0018524149414BEB0B0BB2EB080CFA
:1019B00071EB03077BF1000B24BF624639464EEB07
:1019C0000E0E51EA020718BF46F0010616EB0E761E
:1019D00055F1000254F1000103D5BDE88901BDE8CD
:1019E0000088BDE88901BDE80048B619524141EBC5
:1019F0000101A3F10103704780807F7E7D7C7B7AAB
:101A00007978777676757473727171706F6E6E6DAA
:101A10006C6C6B6A6A696868676666656464636350
:101A200062616160605F5F5E5E5D5D5C5C5B5B5AD6
:101A30005A59595858575756565555555454535343
:101A400052525251515050504F4F4F4E4E4D4D4D9E
:101A50004C4C4C4B4B4B4A4A4A49494948484847E9
:101A60004747474646464545454444444443434327
:101A70004342424242414141002B9C4630D47700D0
:101A80002BD01CB54FEA370703B44FF010004FF0CE
:101A90001001BAF1000F06D0BCF1000FDCBF40F01E
:101AA000080040F008014FF000000FBCBDE81040F6
:101AB0000BF1010BBBF1010F08BF5FEA170722BF53
:101AC00012F1010211F101014FF0004143F1000355
:101AD00000F0004043EA00007047F9D35708D0E710
:101AE00046EA064613F1400F4FEA16461FDD13F192
:101AF000200FDFBF16430A46002120335B42BED0D1
:101B0000C3F1200746EA064602FA07F74FEA1646EF
:101B100046EA0706C3F1200722FA03F201FA07F7A3
:101B200021FA03F14FF0000342EA0702A7E746EA71
:101B3000020646EA06464FEA164646EA0106BCBFDA
:101B400046EA0646360C4FF000034FF000024FF015
:101B5000000194E72DE9804C9A46934670B491E8D1
:101B6000380007C831EA400C48BF34EA430C03D5BB
:101B7000FFF7E6FDFFF780FFF0BCBDE8008C2DE924
:101B8000804C9A46934670B491E8380007C810F02C
:101B9000804F08BF13F0804F03D100F005F8FFF726
:101BA0006BFFF0BCBDE8008C20F07F4780EA0300AB
:101BB00023F07F4C07EB0C03A3F57C5300F00040AF
:101BC000A3F1FE0392F0000F00F0B38095F0000F38
:101BD00000F077802DE901494FEA11404FEA1446A1
:101BE00021EA004800FB06FC24EA064708FB06F64B
:101BF00007FB08F800FB07F718EB06484CEB164C00
:101C00004FEA124B18EB07484FEA15464CEB1740CA
:101C100022EA0B4E0BFB06FC25EA06470EFB06F6F6
:101C200007FB0EFE0BFB07F71EEB064E4CEB164CAC
:101C30004FF000061EEB074E4CEB174B18EB0B0852
:101C400040F1000018EB0E0B58EB000840F10000CB
:101C50008F1A4FF000013CBFC943661B14BFB5EBA0
:101C6000040C00213CBFC943F61B4FEA17444EEA5F
:101C70008E0E27EA04454FEA1C4704FB07622CEA54
:101C8000074C05FB07F70CFB05F604FB0CFC16EBF9
:101C9000074642EB174216EB0C4642EB1C421BEB8D
:101CA000060658EB0202414146EA9E0601D5BDE810
:101CB0000189B619524141EB0101A3F10103BDE8CD
:101CC00001894FEA14454FEA114724EA054621EA03
:101CD000074C05FB07F406FB07F70CFB06F105FBB9
:101CE0000CFC11EB074144EB17444FEA124711EB90
:101CF0000C4144EB1C4422EA074C05FB07F206FBAF
:101D000007F70CFB06F605FB0CFC16EB074642EB4F
:101D1000174216EB0C4642EB1C456A1854F10001C1
:101D200048BF7047B619524141EB0101A3F10103CD
:101D3000704795F0000F37D04FEA11424FEA144731
:101D400021EA024624EA074C02FB07F106FB07F7EB
:101D50000CFB06F402FB0CFC14EB074441EB1741AF
:101D60004FEA154714EB0C4441EB1C4125EA074CA4
:101D700002FB07F506FB07F70CFB06F602FB0CFC63
:101D800016EB074645EB174516EB0C4645EB1C4298
:101D9000121951F1000148BF7047B619524141EB89
:101DA0000101A3F1010370474FEA14454FEA1147BF
:101DB00024EA054621EA074C05FB07F106FB07F775
:101DC0000CFB06F24FF0000605FB0CFC12EB074281
:101DD00041EB174112EB0C4251EB1C4148BF7047DD
:101DE000921841EB0101A3F10103704770B504465D
:101DF00000688168C943C90717D1816821F00101D2
:101E0000816000F06FFD05460AE000BF00F06AFD4A
:101E1000401B022804D920688068C043C00706D050
:101E200020688068C043C007F0D0002070BDA06A61
:101E300040F01000A062E06A40F00100E062012082
:101E400070BD0000F8B50026044600960068816861
:101E5000C943C9072DD0816841F00101816016484E
:101E600016490068B0FBF1F000E0401E0090002829
:101E7000FBD100F037FD054616E000BF00F032FD53
:101E8000401B022810D920688068C043C0070BD0CF
:101E9000A06A40F01000A062E06A40F00100E06239
:101EA00084F824600120F8BD20688068C043C00722
:101EB000E4D10020F8BD00005800002040420F008F
:101EC00010B5064800F00EFB4FF0FF31034800F05C
:101ED0006BFA024800F0AAF980B210BD4C02002053
:101EE000FEE7000009490B6850B1094AB2FBF0F067
:101EF00082B2501ED862C8600968500848637047B3
:101F0000002058630146014801F022BE2003002052
:101F100040420F00054B012953F8202004D0521EE7
:101F200043F8202002F032BE521CF9E75C0000208A
:101F3000704702E00F21491EFDD2401EFAD27047C1
:101F400010B50D4C0120207002F06CFF04F0CCF9AC
:101F500004F036F903F020FF04F0B4F804F0C4F8FC
:101F60000649081D05F052FC012802D003F024FAAE
:101F700010BD0020207010BDAE0000207C010020AC
:101F80001E4810B54178491CCCB244708178491C78
:101F9000CBB28370C178491CCAB20021C270642CD4
:101FA00003D341700469641C0461142B0ED3817047
:101FB000C3885B1C9CB2C48003895B1C9BB20381F9
:101FC000FF2C00D9C180902B00D30181322A07D386
:101FD000C1704289521C92B24281C82A00D3418109
:101FE0000278012A08D18289521C92B28281B2F50C
:101FF0007A7F01D10170818110BD0000680100204D
:10200000022000F069BB102000F066BB72B6FEE74C
:102010003C4FDFF8F49000250126DFF8F0803C4CBF
:1020200002F000FF01F0B2FFE07318B33978012924
:1020300001D019B14BE03748067048E03649012815
:102040000D6036490D60A56106D002280CD003282A
:1020500011D004282ED03AE0E069401EE06100284B
:1020600035DC0220E06132E0E069401CE0610328D9
:102070002DDBE6612BE099F80000012801D018B1B2
:1020800025E089F8005022E002F0CCFE03F094F93C
:10209000E069012802D0022806D018E0022002F0F0
:1020A0001BFEC8F8005012E0032002F015FEC8F82D
:1020B00000600CE0DFF868A000224FF400515046A9
:1020C00000F00BFC01221103504600F006FCE06911
:1020D000012802D0022811D106E003F005FF1023E9
:1020E00030211A46032005E003F0FEFE10231A46B5
:1020F00030216D2003F00AF803F05EF90A2006F0A3
:102100008BFE8DE702000020050000201400002057
:102110009C000020040000200C0000201000002083
:10212000000C014001488069704700000000002059
:10213000F8B50024009490F824202546012A12D0F6
:10214000012280F824204A681F23072A0DD206683E
:10215000776B521E02EB820293409F430B689340C1
:102160001F43776319E00220F8BD06680D2A0AD2E2
:10217000376BD21F02EB820293409F430B68934060
:102180001F43376309E0F76A0D3A02EB820293407E
:102190009F430B6893401F43F7620A680723066852
:1021A0000A2A0AD3F7680A3A02EB420293409F4395
:1021B0008B6893401F43F76008E0376902EB4202E7
:1021C00093409F438B6893401F4337610A68102AEE
:1021D00001D0112A20D1124B02689A4217D193687C
:1021E0001B0219D4936843F4000393600968102913
:1021F00012D10C490C4A0968B1FBF2F101EB8101E3
:10220000490000E0491E00910029FBD104E0816AE9
:1022100041F020018162012480F824502046F8BD5D
:10222000002401405800002040420F000068C06CAC
:10223000704700002DE9F0414FF0000704003D46D3
:102240007ED0A06A002628B9E66284F82460204681
:1022500000F07EF82046FFF7C9FDA16AC90600D448
:1022600020B1A06A40F01000A06269E0A16A21F4E8
:10227000885141F00201A1626268E169237B0A434F
:1022800047EA43010A43A1684FF48077B94209D075
:10229000012907D05FF0000194F814C0BCF1010FD0
:1022A00002D00AE03946F7E7F3B1A36A43F020030E
:1022B000A362E36A43F00103E3622368D3F804C036
:1022C0002CF4694C4CEA010CC3F804C021688B68FB
:1022D000DFF870C003EA0C0313438B60A168B942B6
:1022E0000BD0012909D00CE0DFF85CC0A3690CEB2E
:1022F00043330B4343F40061DFE7218A0D05A5F565
:1023000080152168CB6A23F470032B43CB622168CC
:1023100089680E4B1940914208D1E662A16A21F00A
:10232000020141F00101A162BDE8F081A06A20F044
:10233000020040F01000A062E06A40F00100E0629C
:102340000120F1E7FDF7E1FF00E0FFFFFE0E1FFFB8
:1023500000B585B0002100910191029103910068C0
:102360000E49884218D10E48816941F4007181619B
:10237000816901F400710491816941F00401816176
:102380008069694600F00400049001200090032059
:102390000190044800F0ACF905B000BD00240140F4
:1023A00000100240000801402DE9F84300270D46C7
:1023B0000446009700F096FA804620688168C905B7
:1023C00008D5A06A40F02000A06284F824700120A3
:1023D000BDE8F8834168C90503D4C06A10F4700FE2
:1023E0002AD0022000F070FB3B490968B1FBF0F6EF
:1023F0002068036939490B424FEA61014FEAA11293
:102400001FD1C3684FEA611C13EA0C0F19D103698D
:102410000B4225D1C068104222D1142023E0681C51
:102420000AD02DB100F05EFAA0EB0800A84203D953
:1024300020680068800725D5206800688007EED5F1
:102440002DE003690B4202D1C168114206D0026936
:1024500023490A4206D1C068084203D1542002E051
:10246000292000E0FC204643009816E0681C11D0AB
:102470002DB100F037FAA0EB0800A8420AD9009865
:10248000B04207D2A06A40F00400A06284F8247031
:1024900003209DE70098401C0090B042E6D32168DD
:1024A0006FF012000860A06A40F40070A06220681B
:1024B0008068C0F3424007280CD1207B50B9A06A45
:1024C00020F48070A062A06AC00403D4A06A40F027
:1024D0000100A06200207BE75800002024499224DC
:1024E0004992240070B5044690F8240001280DD0CC
:1024F000012084F824002046FFF7A4FC02004FF0DE
:10250000000005D084F82400104670BD022070BD84
:10251000A16A40F20123994341F48071A1621F4DE9
:1025200023681F49AB4218D10E6816F4702F14D0DF
:10253000A66A46F48016A6620E68760505D5A66AD8
:1025400026F4005646F48056A662A66AF6040AD51A
:10255000E66A26F00606E66206E0A66A26F480161B
:10256000A6625E68E9E7E06284F824006FF002008A
:10257000186020688368C3F34243072B05D1A84243
:1025800008D1096811F4702F04D0816841F48011DA
:102590008160B9E7816841F4A001F9E700280140B2
:1025A0000424014010B590F821100022022905D022
:1025B0000421816380F82020012010BD01680B6890
:1025C00023F00E030B6001680B6823F001030B601E
:1025D00090F84030C46B012101FA03F3636080F886
:1025E000211080F82020104610BD000010B590F892
:1025F00021100024022903D00421816301243DE03D
:1026000001680A6822F00E020A6001680A6822F076
:1026100001020A601A4A0168914201D1012121E0B8
:10262000174A1432914201D110211BE0144A28327A
:10263000914201D1891515E0114A3C32914201D1F4
:1026400089140FE00E4A5032914202D14FF480318A
:1026500008E00B4A6432914202D14FF4801101E04C
:102660004FF08071064A083A5160012180F821102C
:10267000002180F82010416B01B18847204610BD31
:102680000800024070B5044600F02CF90546601CB5
:1026900002D004480078044400F024F9401BA04212
:1026A000FAD370BD4C00002001220A49022803D051
:1026B000102800D10A717047002048700861C86076
:1026C0008878012803D00228F5D1C8707047CA70F5
:1026D0007047000000000020044910B50A6802425B
:1026E00002D00860FFF7E0FF10BD000014040140B5
:1026F0002DE9F84FDFF8B8910024A9F1040B234627
:102700000F2709F1040AABF1040EC9E00125A54029
:102710002A40AA427DD1674ED1F804C0ACEB06082E
:10272000B44532D014DCBCF1030F3AD009DCBCF163
:10273000000F2AD0BCF1010F1CD0BCF1020F31D127
:102740001DE0BCF1110F17D0BCF1120F2AD119E016
:10275000B8F5881F19D006DCB8F5803F15D0B8F55C
:10276000801F1FD111E0B8F5001F0ED0B8F5041F6F
:1027700018D10AE0CB6815E0CB681B1D12E0CB68CE
:1027800008330FE0CB680C330CE08B682BB1012BC6
:102790004FF0080303D0456104E0042302E0056123
:1027A00000E00023FF2A01D8064601E000F10406FC
:1027B0004FEA840501D9A5F12005D6F8008007FA73
:1027C00005FC28EA0C0803FA05F548EA0508C6F8EE
:1027D00000804D68ED0062D5374DAE6946F00106C8
:1027E000AE61AD6924F0030605F001050095334D97
:1027F00006EB050CDCF80850A607360F07FA06F8BA
:1028000025EA0805DFF8B880404503D14FF00008FD
:1028100017E044E0DFF8AC80404502D14FF00108FA
:102820000FE0DFF8A480404502D14FF0020808E035
:10283000DFF89880404502D14FF0030801E04FF0E7
:10284000040808FA06F848EA0508CCF808804D683C
:10285000D9F80060ED024D4601D5164300E09643DD
:102860002E604D68DAF80060AD02554601D516437A
:1028700000E096432E604D68DBF80060AD035D46D6
:1028800001D5164300E096432E604D68DEF80060E7
:10289000ED03754601D5164300E096432E60641C97
:1028A0000D682A46E5407FF431AFBDE8F88F00009F
:1028B0000804014000001110001002400000014017
:1028C00000080140000C01400010014000140140CC
:1028D0008068084000D0012070470AB1016170474C
:1028E0000904FBE701488068704700004C000020A5
:1028F0000248816802781144816070474C000020D2
:10290000074810B5016841F010010160032000F094
:10291000A1F80F2000F006F800F04AF8002010BDE2
:102920000020024030B505461C4887B0816941F45B
:1029300000618161806906A900F40060009001A82F
:1029400000F020FA00F04EFA1549164AB0FBF1F1FA
:102950001548491E0260416040F2E7320021C0E99B
:1029600003218160816100F02BFE040012D10E482A
:1029700000F098FE04000DD1192000F03DF8102D54
:1029800007D200222946192000F044F807480560C4
:1029900000E0012407B0204630BD000000100240D6
:1029A00040420F00002C0140B003002050000020E6
:1029B0000F4808B5816941F001018161816901F029
:1029C00001010091C16941F08051C161C0690022DB
:1029D00000F0805000900F21901E00F01BF8054879
:1029E000416821F0E06141F00071416008BD0000E4
:1029F0000010024000000140002809DB00F01F0227
:102A0000012191404009800000F1E020C0F8001150
:102A100070470000F0B40E4B1B680C46C3F3022352
:102A2000C3F10705042D00D90425191D072901D27A
:102A3000002300E0DB1E012606FA05F1491E2140B5
:102A400099409E40761E16403143F0BC04F0DFB939
:102A50000CED00E0064900F0070208684FF6FF039E
:102A6000184040EA0220034A104308607047000003
:102A70000CED00E00000FA050149012008627047F2
:102A800000000E420E4A10B5136823F002031360D3
:102A9000136823F00103034313600A4C206840F0DD
:102AA00004002060012909D040BF02F0DAFC02F0E6
:102AB000D8FC206820F00400206010BD30BFF8E78B
:102AC0000070004010ED00E010B501460020234CDE
:102AD000012922D0022939D010291DD1616822682C
:102AE000D20119D51E48C1F38342C903805C0AD5BF
:102AF00061681B4AC1F34041921E515C194AB2FB06
:102B0000F1F1484301E0184948436168490203D4A0
:102B100040000321B0FBF1F010BD226AC2F3012195
:102B2000012903D1920701D5C80310BD022905D19F
:102B3000626A920702D549F6404010BD0329FCD1D4
:102B400021688903F9D54FF2244010BD00F04AF9FD
:102B50006168C1F38131491C4900DBE70010024084
:102B6000C4AB000800127A0000093D002DE9F843CB
:102B700005460078354CC00754D0E0690026C000F7
:102B800008D4E06940F08050E061E069012600F07F
:102B9000805000902E480168C90512D40168804613
:102BA00041F480710160FFF79DFE074605E000BF1C
:102BB000FFF798FEC01B642823D8D8F80000C00592
:102BC000F6D5206A10F4407021D0A98801F4407134
:102BD00081421CD0206A1F49012220F440700A6003
:102BE00000220A602062C00711D0FFF77BFE074673
:102BF00041F2883808E000BFFFF774FEC11B414571
:102C000002D90320BDE8F883206A8007F4D5206A42
:102C1000696820F44070084320621EB1E06920F02A
:102C20008050E0612878800705D56068A96820F4A5
:102C30004040084360602878C00605D56068E968B0
:102C400020F48000084360600020DBE700100240B1
:102C500000700040400442422DE9F0470F46050055
:102C600061D0434E306800F00700B84209D23068A6
:102C700020F0070038433060306800F00700B842A9
:102C800051D128683B4C810712D5400703D56068B5
:102C900040F4E06060602878000703D5606840F485
:102CA000605060606068A96820F0F00008436060D0
:102CB0002878C00728D06868012810D02168022829
:102CC00010D0890700292EDA616821F00301014341
:102CD0006160FFF707FE804641F288390DE0216808
:102CE0008903EFE78901EDE7FFF7FCFDA0EB0801A1
:102CF000494502D90320BDE8F0876068696800F0A3
:102D00000C00B0EB810FEFD1306800F00700B84243
:102D10000BD9306820F0070038433060306800F08D
:102D20000700B84201D00120E5E72878400705D523
:102D30006068E96820F4E060084360602878000774
:102D400006D56068296920F4605040EAC1006060DF
:102D500000F058F86168084AC1F30311515CC8409B
:102D60000649086006480068FFF7DCFD0020C2E75E
:102D70000020024000100240D4AB000858000020A0
:102D8000500000200F2202600C4A536803F0030336
:102D90004360536803F0F0038360536803F4E06317
:102DA000C36052684FF4E06303EAD2020261044850
:102DB000006800F007000860704700000010024043
:102DC000002002400448054900684968044AC1F3EC
:102DD0000221515CC840704758000020001002409A
:102DE000E4AB00080448054900684968044AC1F397
:102DF000C221515CC84070475800002000100240BA
:102E0000E4AB00080E4A51680E4801F00C03042B95
:102E100011D0082B0FD10C48C1F38343C903C05C08
:102E20000AD55168084AC1F34041921E515C054AD7
:102E30005043B0FBF1F0704704494843704700002D
:102E40000010024000127A00B2AB000800093D00F9
:102E50002DE9F84F040070D02078C04DC00749D04C
:102E60006868C0F38100012807D06868C0F381005A
:102E7000022809D16868C00306D52868800339D5BF
:102E800060680028E7D035E06068B0F5803F0BD07F
:102E900010B1B0F5A02F11D0286820F48030286040
:102EA000286820F4802002E0286840F48030286000
:102EB000606890B1FFF716FD06460AE0286840F406
:102EC00080202860F0E700BFFFF70CFD801B64281E
:102ED00073D828688003F7D50CE0FFF703FD06469A
:102EE00005E000BFFFF7FEFC801B6428F0D82868CF
:102EF0008003F7D420789A4E80074FF001094FF0F5
:102F0000000839D5686810F00C0F07D06868C0F366
:102F10008100022809D16868C00306D428688007A8
:102F200014D52069012808D110E02069B0B1C6F895
:102F30000090FFF7D7FC074605E00AE1FFF7D2FC57
:102F4000C01B0228C4D828688007F7D528686169A3
:102F500020F0F80040EAC10028600DE0C6F80080CB
:102F6000FFF7C0FC074604E0FFF7BCFCC01B0228CB
:102F700023D828688007F7D4207800072CD5794813
:102F8000A169D9B1C0F80090FFF7ACFC074604E096
:102F9000FFF7A8FCC01B02280FD8686A8007F7D586
:102FA00071484FF4FA510068B0FBF1F0009000BF97
:102FB0000098411E0091FAD20EE080E0C0F8008037
:102FC000FFF790FC074604E0FFF78CFCC01B0228CB
:102FD00075D8686A8007F7D42078400760D5E8691B
:102FE0000027C00008D4E86940F08050E861E86933
:102FF000012700F0805000905C480168C90513D497
:103000000168834641F480710160FFF76BFC8246E2
:1030100006E000BFFFF766FCA0EB0A0064284ED86C
:10302000DBF80000C005F5D5E06801280AD008B13A
:10303000052813D0286A20F001002862286A20F0B1
:10304000040002E0286A40F001002862E06841F2D2
:10305000883B98B1FFF746FC82460BE0286A40F0B7
:1030600004002862EEE700BFFFF73CFCA0EB0A017A
:1030700059455AD8286A8007F6D50CE0FFF732FC8C
:10308000824605E0FFF72EFCA0EB0A0159454CD81B
:10309000286A8007F6D41FB1E86920F08050E86103
:1030A000E06988B36968C1F38101022944D002282C
:1030B000C6F8608004D0FFF715FC044638E034E021
:1030C000FFF710FC074604E0FFF70CFCC01B0228CA
:1030D0002BD828688001F7D4206AB0F5803F05D14D
:1030E0006868A16820F4003008436860D4E90801EA
:1030F0000843696821F4741108436860C6F8609059
:10310000FFF7F0FB044606E025E000BFFFF7EAFB0F
:10311000001B022809D828688001F7D51BE000BFF2
:10312000FFF7E0FB001B022802D90320BDE8F88F5F
:1031300028688001F4D40EE00128F7D06868226A7C
:1031400000F48031914204D1616A00F47010884229
:1031500001D00120EAE70020E8E70000001002406B
:1031600000004242800442425800002000700040AB
:10317000024850F8210080B270470000006C004007
:10318000024800EB810091B201607047006C004082
:10319000F8B505004FF0000016460C46009006D02A
:1031A0002CB100226946284600F019F808B1012028
:1031B000F8BD287B2070E87BE070697B6170A97B9B
:1031C000A17056B102F0ADF9E070607802F0A9F993
:1031D0006070A07802F0A5F9A0700020F8BD2DE97C
:1031E000F04791460C465FEA00084AD084B3D8F80D
:1031F00000004068400744D4404602F031FA4FF4E2
:1032000061620546B0FBF2F1B0FBF2F302FB135032
:103210003C23B0FBF3F0B5FBF2F6607002FB1650F6
:10322000B0FBF3F203FB1200A070182931D3182071
:10323000B1FBF0F7B1FBF0F200FB1210207040463A
:1032400002F007FA411C04D0A84202D9461B02E052
:1032500017E04FF0FF36A7EB071000EB4000C0EB84
:10326000001005EBC0152946404602F048FA40B967
:10327000701C01D0711900E03146404602F02BFA73
:1032800010B10120BDE8F0873946404602F054F9FC
:1032900000E02170B9F1000F0BD0207802F041F965
:1032A0002070607802F03DF96070A07802F039F982
:1032B000A0700020E6E7000070B5040003D0607C39
:1032C000002610B105E0012070BD2674204600F0F4
:1032D0003DF802206074204600F00AF9042550BB36
:1032E000204602F080F930BB2068416821F00701D8
:1032F0004160A06820B11448016821F0010101601B
:103300001148001F0168A26821F460711143016037
:103310006068411C04D10120FFF7D6FB58B1401E64
:103320002268C0F303419160216880B2C8602046E2
:1033300002F074F908B16574C5E7E67301206073A3
:10334000A0736074002070BD306C004008B5006848
:10335000084988420DD1FFF78FFB0748C16941F04A
:103360000061C161C069054900F000600090012062
:10337000086008BD00280040001002403C044242A2
:103380002DE9F0410D4604003BD0C5B3207C012857
:103390003AD04FF0010884F8108002206074E87879
:1033A00072B302F0B5F8E073687802F0B1F86073B8
:1033B000A87802F0ADF8A073C2B2617BE07B02F0A6
:1033C0005FF920732870204602F04AF94FF46161DA
:1033D000B0FBF1F1002518292DD91822B1FBF2F12B
:1033E000A1EB011101EB4101C1EB011100EBC11691
:1033F0003146204602F083F90427C8B90BE000E00B
:1034000004E00120BDE8F0810220FBE7E07368786A
:103410006073A878CFE7204602F01BF9411C0AD060
:10342000B04208D206490144204602F054F910B1D6
:1034300067742574E5E784F8118025740020E1E7BE
:10344000805101002DE9F0410D46040024D01DB348
:10345000207C012823D04FF0010884F8108002203E
:1034600060742878EAB102F053F84FF4616100FB10
:1034700001F6687802F04CF8C0EB001006EB80060D
:10348000A87802F045F835182946204602F037F9A9
:103490000026042710BB0FE00120BDE8F0810220C8
:1034A000FBE74FF4616148436978C1EB011100EB20
:1034B0008100A9784518E7E72068416821F00501F7
:1034C0004160204602F0C5F8411C0AD0A84208D24B
:1034D00006490144204602F0FEF810B167742674D4
:1034E000DAE784F8118026740020D6E780510100C5
:1034F00070B504000AD02068416821F008014160DD
:10350000FFF7F0F905464FF47A7608E0012070BD28
:10351000FFF7E8F9401BB04201D9032070BD2068D5
:1035200040680007F4D5002070BD00000348006823
:10353000C16841F00101C16070470000B003002084
:1035400003480068C16821F00101C16070470000B4
:10355000B00300207047704770B590F83C20012AF6
:1035600026D0012480F83C40022280F83D200368E8
:103570005A689D6822F070060A6832435A600D4B03
:1035800002689A4208D0B2F1804F05D00A4B9A42A5
:1035900002D00A4B9A4204D1496825F080031943AE
:1035A000916080F83D40002180F83C10084670BDD5
:1035B000022070BD002C01400004004000080040C3
:1035C00010B5040003D094F83D0010B107E00120CD
:1035D00010BD002084F83C00204600F01FF80220B7
:1035E00084F83D00211D206803F022F8012084F8B2
:1035F000460084F83E0084F83F0084F8400084F8D8
:10360000410084F8420084F8430084F8440084F8C0
:10361000450084F83D00002010BD000008B5016899
:103620001D48B1F1804F11D01C4A91421DD1C16992
:1036300041F00201C161C069002200F00200009067
:1036400005211D20FFF7E6F91D201FE0C16941F0AB
:103650000101C161C069002200F001000090052154
:103660001C20FFF7D7F91C2010E00D4A914211D120
:10367000C16941F00401C161C069002200F0040089
:10368000009005211E20FFF7C5F91E20BDE8084067
:10369000FFF7B2B908BD000000100240000400406E
:1036A0000008004090F83D10012901D0012070472A
:1036B000022180F83D100168CA6842F00102CA6028
:1036C00000680B49884208D0B0F1804F05D0094905
:1036D000884202D00849884204D1816801F007017C
:1036E000062903D0016841F0010101600020704704
:1036F000002C014000040040000800400168CA6836
:1037000022F00102CA6001680A6A41F211131A42EA
:1037100007D10A6A9B101A4203D10A6822F00102FB
:103720000A60012180F83D100020704770B5044602
:1037300090F83C000025012817D0012684F83C6051
:10374000022084F83D002068826822F0770222F48B
:103750007F4282600868502838D00DDC20284FD086
:1037600005DC90B3102811D14AE0022070BD30284A
:1037700046D040280AD13BE060282FD070280DD0D9
:10378000B0F5805F03D0B0F5005F12D0012584F85A
:103790003D60002084F83C00284670BDCB68D1E92C
:1037A0000121206802F08DFF2068816841F07701D7
:1037B00009E0CB68D1E90121206802F082FF20688E
:1037C000816841F480418160E1E719E0CA68496895
:1037D000206803F02BF85021206806E0CA68496889
:1037E000206803F034F86021206802F074FFCEE70F
:1037F000CA684968206803F019F840212068F4E796
:10380000226801461046F0E770472DE9F041044672
:103810000068C66805694FF00007A90713D5B1070E
:1038200011D5F91E01610120207720688069800789
:10383000204602D0FFF7E8FF04E000F0A5F820469C
:1038400000F037F92777680716D5700714D5216877
:103850006FF004000861022020772068806910F46E
:10386000407F204602D0FFF7CFFF04E000F08CF845
:10387000204600F01EF92777280715D5300713D505
:1038800021686FF008000861042020772068C06973
:103890008007204602D0FFF7B7FF04E000F074F87D
:1038A000204600F006F92777E80616D5F00614D56D
:1038B00021686FF010000861082020772068C06937
:1038C00010F4407F204602D0FFF79EFF04E000F096
:1038D0005BF8204600F0EDF82777E80708D0F007FE
:1038E00006D021686FF001000861204600F068F9F9
:1038F000280608D5300606D521686FF080000861DB
:103900002046FFF727FE680608D5700606D5216811
:103910006FF040000861204600F06EF9A8060AD555
:10392000B00608D521686FF0200008612046BDE888
:10393000F041FFF710BEBDE8F081000000B585B092
:103940000021009101910291039100680B49884286
:1039500011D10B48816941F0080181618069694694
:1039600000F0080004904020009002200190039095
:103970000448FEF7BDFE05B000BD00000008004091
:1039800000100240000C0140704770B5044690F8EA
:103990003C0000260D4601280FD0012084F83C0091
:1039A0006AB1042A1DD0082A2FD00C2A3FD0012644
:1039B000002084F83C00304670BD022070BD2068B5
:1039C00002F092FE2068816941F00801816120685F
:1039D000816921F004018161206881692A691143AC
:1039E00011E0206802F0A8FE2068816941F40061BE
:1039F00081612068816921F4806181612068816929
:103A00002A6941EA02218161D2E7206802F0C0FE02
:103A10002068C16941F00801C1612068C16921F0D5
:103A20000401C1612068C1692A69114311E020685D
:103A300002F0DAFE2068C16941F40061C1612068CA
:103A4000C16921F48061C1612068C1692A6941EAC4
:103A50000221C161ACE710B5040003D094F83D0029
:103A600010B107E0012010BD002084F83C00204682
:103A700000F01EF8022084F83D00211D206802F0AD
:103A8000D7FD012084F8460084F83E0084F83F000A
:103A900084F8400084F8410084F8420084F8430030
:103AA00084F8440084F8450084F83D00002010BDEF
:103AB0007047704710B50446022249B104290ED060
:103AC000082913D094F84100012816D0012010BD18
:103AD00094F83E000128F9D184F83E200FE094F8D4
:103AE0003F000128F2D184F83F2008E094F840001C
:103AF0000128EBD184F8402001E084F84120012224
:103B0000206802F0D1FD0F492068884203D1426C41
:103B100042F4004242642068884208D0B0F1804FED
:103B200005D00949884202D00849884204D18168F9
:103B300001F00701062903D0016841F0010101608D
:103B4000002010BD002C014000040040000800408F
:103B500030B504460D460068002202F0A5FD174B63
:103B600041F2111120688A10984209D1036A0B4270
:103B700006D1036A134203D1436C23F40043436428
:103B80002068036A0B4206D1016A114203D1016821
:103B900021F00101016001203DB1042D08D0082D64
:103BA00009D084F84100002030BD84F83E00FAE7D7
:103BB00084F83F00F7E784F84000F4E7002C014068
:103BC00010B5044600680A49884201D1FEF790FE0C
:103BD0002068B0F1804F01D101F08CF805492068D0
:103BE000884203D1BDE8104001F0E4B810BD0000E8
:103BF000002C0140000400407047704770470000EF
:103C0000F8B5016804460868CA684B6910F00F0FE0
:103C10004FF0000559D003F0010602F490773743C6
:103C200065D0C10705D0D10503D5616C41F0010114
:103C30006164410705D5D90703D0616C41F00201E9
:103C40006164810705D5D90703D0616C41F0040197
:103C50006164010707D502F02001314303D0616C94
:103C600041F008016164616C00293AD0800604D5F6
:103C7000900602D5204602F0D0FF20684069616CB2
:103C8000C0F38010090700D460B3204602F09EFF05
:103C900020684069400621D52068143050E8001F94
:103CA00021F0400140E80012002AF5D1E06BA8B1F4
:103CB0006D494163E06BFEF799FC002811D0E06B81
:103CC000416B01B0BDE8F040084783060FD593066D
:103CD0000DD52046BDE8F84002F09FBF2046FFF713
:103CE0008DFFF8BD2046FFF789FF6564F8BD266BA0
:103CF0002023012E7CD1C6067AD5D60678D5086851
:103D00004868009048694FF00206400640D5E16BD4
:103D1000086840680004000CE8D0A28D8242E5D912
:103D2000E085886920282DD020680C3050E8001FDD
:103D300021F4807140E80012002AF5D12068143087
:103D400050E8001F21F0010140E80012002AF5D1DF
:103D50002068143050E8001F21F0400140E80012B4
:103D6000002AF5D184F84230256320680C3050E8F1
:103D7000001F21F0100140E80012002AF5D1E06B8D
:103D8000FEF710FC6663A08DE18D401A81B22AE037
:103D9000A08DE18D401A81B2E08D0028A6D00029C7
:103DA000A4D022680C3252E8000F20F4907042E850
:103DB0000007002FF5D12068143050E8002F22F0C2
:103DC000010240E80027002FF5D184F84230256336
:103DD00020680C3050E8002F22F0100240E8002349
:103DE000002BF5D166632046FFF707FFF8BDFFE71C
:103DF00005062BD5150629D594F841002128F5D1C3
:103E0000A068B0F5805F01D12069B0B1206A411C83
:103E10002162216800784860E08C401E0004000C9C
:103E2000E084E3D12068C16821F08001C16020688E
:103E3000C16841F04001C160D8E7206A0088C0F342
:103E400008004860206A801C2062E5E74006CDD566
:103E50005006CBD5CA68204622F04002CA6084F8DA
:103E6000413000F078F8C1E7BD6B000870B5040080
:103E700004D094F84100002510B106E0012070BD87
:103E800084F84050204600F023F8242084F84100B4
:103E90002068C16821F40051C160204602F01EFF75
:103EA0002068016921F4904101612068416921F095
:103EB0002A0141612068C16841F40051C160656414
:103EC000202084F8410084F842006563002070BD22
:103ED00030B585B0002400940194029403940068E6
:103EE000194988422DD11948816941F48041816185
:103EF000816901F480410491816941F0040181618B
:103F00008069134D00F0040004904FF4007000909D
:103F1000022001900320039069462846FEF7E8FB43
:103F20002815CDE900040120029069462846FEF7D5
:103F3000DFFB002205212520FEF76CFD2520FEF782
:103F40005BFD05B030BD00000038014000100240AC
:103F50000008014070477047FEE7000070B5094D4A
:103F600010212846FEF7B4FC074C40B1102128462A
:103F7000FEF7AEFC012801D10020606070BD6068D2
:103F8000401CFAE700080140940000200349C8786B
:103F9000002801D00022CA70704700009400002061
:103FA00010B502210B48FEF793FC60B10A4C40218A
:103FB0002046FEF78DFC40B110212046FEF788FC1C
:103FC00028B1002010BD012010BD022010BD03202B
:103FD00010BD0000000C01400008014010B50A4C63
:103FE0002078401CC0B2207014280CD30020207010
:103FF0006078A070FFF7D4FF6070A178002902D02C
:10400000002800D1E17010BD9400002010B51021EF
:104010001F2000F049F91421202000F045F91C214F
:10402000372000F041F94021382000F03DF9BDE88B
:1040300010403A2000F019B93A2000F016B90000FB
:104040002DE9F04F89B00DF10C080DF10809CDE90B
:104050000098002504AB07AA05A906A800F09EF861
:10406000BDF9104000236142002901DD084616E039
:1040700047F23052944204DDBDF908004042002866
:104080000DDCBDF90800904204DDBDF90C00404292
:10409000002804DCBDF90C00904201DC03E000B113
:1040A000012300290CDCBDF90800211A002901DDDB
:1040B000414205E0BDF90C10401A002800DD4942DC
:1040C0000026344C022900DC5BB34FF0010A84F86F
:1040D00000A0FEF727F80746DFF8BCB049E0CDE9BD
:1040E000009804AB07AA05A906A800F057F8BDF987
:1040F00018205042002811DC4FF4FA718A4204DA89
:10410000BDF914004042002808DCBDF914008842C3
:1041100008DABDF91C00642801DC03E010B1012DB0
:1041200031D02BE02670FDF7FDFFB84204D0BDF979
:1041300010004042002817DCBDF9100059468842A3
:1041400004DABDF90800404200280DDCBDF9080082
:10415000884204DABDF90C004042002804DCBDF9B5
:104160000C00584501DB01E000B101250A20FEF7F3
:1041700089FAFDF7D7FFC01B6428B0D36670002012
:1041800009B0BDE8F08F0220207084F801A0012062
:10419000F6E70000C9010020A08601002DE9F047E4
:1041A0000746DDE9089A1D4690460E463B2000F082
:1041B0005CF804463C2000F058F840EA04203880BF
:1041C0003D2000F052F804463E2000F04EF840EA50
:1041D000042030803F2000F048F80446402000F0E2
:1041E00044F840EA0420A8F80000432000F03DF81D
:1041F0000446442000F039F840EA04202880452095
:1042000000F033F80446462000F02FF840EA04207E
:10421000A9F80000472000F028F80446482000F0E4
:1042200024F840EA0420AAF80000BDE8F08710B5A1
:1042300001216B2000F038F800216C2000F034F8E8
:104240000921192000F030F806211A2000F02CF87E
:1042500018211B2000F028F804211C2000F024F86D
:10426000BDE810406420FEF70DBA10B5044600F01A
:10427000D6FBD02000F0BDFB00F088FB204600F00C
:10428000B8FB00F083FB00F0CAFBD12000F0B1FBCB
:1042900000F07CFB00F089FB0446012000F09EFB4F
:1042A00000F0CCFB204610BD70B50D46044600F072
:1042B000B6FBD02000F09DFB00F068FB204600F02C
:1042C00098FB00F063FB284600F093FB00F05EFBD8
:1042D000BDE8704000F0B2BB3EB500241148009428
:1042E000019402940E4984600160047304750125F1
:1042F00005614FF460214460C161FDF79BFF08B187
:10430000FDF784FE05200094CDE90150694605487B
:10431000FDF70EFF002801D0FDF778FE3EBD00003E
:10432000002401404C02002010B5044A002104483A
:1043300003F028FC0349086010BD00008CAB0008A6
:104340005D4C0008480000202DE9F04385B00024B2
:1043500047480094019402940394816941F010014C
:104360008161816901F010010491816941F00401CA
:104370008161816901F004010491816941F00801C2
:1043800081618069DFF8EC8000F008000490012270
:1043900008214046FEF7A1FADFF8DC904FF44067B1
:1043A000012239464846FEF798FA00224FF44C5154
:1043B0004846FEF792FA022630480096CDE90104FD
:1043C00069464046FEF794F908200125CDE900052D
:1043D000CDE9024669464046FEF78AF91020009072
:1043E0002748CDE9010569464046FEF781F940209E
:1043F0008DE8310069464046FEF77AF948F202003E
:104400008DE8310069464846FEF772F90320CDE990
:10441000024000971127694601974846FEF768F960
:104420004FF44050CDE90005CDE9024669464846C3
:10443000FEF75EF94FF44070CDE90007CDE9024682
:1044400069464846FEF754F9002205210720FEF789
:10445000E1FA0720FEF7D0FA002205210A20FEF734
:10446000D9FA0A20FEF7C8FA05B0BDE8F0830000CB
:104470000010024000080140000C01400000111033
:10448000000021100648054901604FF0FF314160EE
:104490004FF48071816000F001BB000000280040F3
:1044A0007C02002010B586B00024174800940194C7
:1044B0000294039404944FF080410594016040F20B
:1044C0007F21C0E901146321C0E9031480218161C7
:1044D000FFF776F808B1FDF799FD4FF48050009092
:1044E00069460948FFF722F908B1FDF78FFD0494EA
:1044F00004A905480594FFF72FF8002801D0FDF71F
:1045000085FD06B010BD00009002002010B586B0F9
:1045100000241748009401940294039404941349CE
:10452000059401603F21C0E9011442F20F71C0E916
:10453000031480218161FFF743F808B1FDF766FDA0
:104540004FF48050009069460948FFF7EFF808B132
:10455000FDF75CFD049404A905480594FEF7FCFFF3
:10456000002801D0FDF752FD06B010BD0004004048
:10457000D802002010B58EB0002407940894099446
:104580000A940B941C2168460C94FBF778FF1F4893
:104590001D4901603F21C0E90114C460802104610C
:1045A0008161FFF70DF808B1FDF730FD4FF4805041
:1045B000079007A91548FFF7B9F808B1FDF726FDE0
:1045C0001248FFF748FA08B1FDF720FD0B940BA93C
:1045D0000E480C94FEF7C0FF08B1FDF717FD6020F0
:1045E000009041F28830019002200290002269463A
:1045F00004940648FFF7C9F908B1FDF707FD034821
:10460000FFF79CF90EB010BD000800402003002009
:104610000C4810B50A4901604FF416514160002161
:1046200081600C22C160C0E904128161C161FFF7A1
:104630001DFC002803D0BDE81040FDF7E7BC10BD0D
:104640000038014068030020FEE70000464C0026C9
:10465000464F94F82450B1464FF00108DFF810A1FE
:1046600000F0E0FBFFF792FCE07398B33978012982
:1046700001D021B154E03F4981F8008050E03E4A2A
:104680000128C2F800903D4AC2F8009004D00228E8
:1046900011D003281FD043E06078302840D184F83F
:1046A0000380606A0126C5B2401E606200283DDCBE
:1046B000072060623AE06078302831D184F80380C6
:1046C000616A0226CDB2491C40466162082938DB86
:1046D000606236E012E06078302821D100F0A2FB61
:1046E00000F06AFE94F82400012808D002280CD0BB
:1046F00003280CD004280CD005280CD010E0012091
:1047000000F0EAFACAF800900AE0052004E0072069
:1047100002E0082000E0062000F0DEFACAF800807F
:10472000012E03D0022E0CD0284616E0012D06D013
:10473000A81E052813D8C2B2681EC1B206E0072021
:104740000BE0681E052805D8C1B22A46E07801F0C2
:104750006DFA04E0072D02D1012001F0DFFA0A20F2
:1047600004F05AFB7CE700009C00002002000020BF
:1047700014000020040000200C0000201000002085
:1047800038B500F04FFB38482C2300901A460A2118
:104790002A2000F07FFD354C00213022237C607CF4
:1047A000834208D26378A578A3EB050313F0FF03D7
:1047B000637008D00AE009D96378A5782B44DBB28E
:1047C0006370602B02D12074E1706270284D207CF0
:1047D000202305EBC01000901A461021607800F0ED
:1047E00059FD207C70B105EBC010803800906078D6
:1047F00020233038C0B21A46102100F04BFD207C37
:1048000005280CD8C0B205EBC0108030009060784D
:1048100020233030C0B21A46102100F03BFD207C2E
:1048200002280FD305EBC010A0F5807000906078CF
:1048300020236038C0B21A46102100F02BFD207CE6
:1048400005280DD8C0B205EBC01000F580700090AF
:10485000607820236030C0B21A46102100F01AFDA3
:10486000BDE8384000F0A8BDCAE600089C00002062
:104870009AE0000800241F4A25463427214628468E
:1048800002F16006C2F8404006EB4103891C5B88D8
:1048900089B21844B942F7D39046106404F0AEFFD1
:1048A000A9464FF4FA7B4FF47A7AC8F848000CE036
:1048B000002445462046C8F85090FDF713FB5846A3
:1048C00004F0AAFA04F09AFFA86436F81400641CF5
:1048D000A1B236F81150491C8CB2FDF703FB4FF41E
:1048E0007A704543B5FBFAF004F096FABC42ECD37B
:1048F000DEE700009C0000202DE9F0417C2604F05A
:104900007DFF194CA17B02291FD0A16C401A216D9B
:10491000451A206C854200D9054605F065FF07461B
:10492000284605F061FF394605F080FE01466064C7
:104930000E4805F06DFF4FF07C5105F015FE05F0B7
:1049400037FF002804DA002005E0D4E91210DDE783
:104950007C2800DD3046BDE8F041C2B204233A2194
:10496000022000F0D3BB00009C0000200000F842B1
:1049700010B54FF400610448FDF7AAFF04460A2071
:10498000FDF7D7FA204610BD000C014010B50120FC
:1049900000F072F8012000F05DF8FFF7E9FF04462F
:1049A000002000F057F8204610BD70B5002501200A
:1049B00000F062F800248026012000F04BF8FFF799
:1049C000D7FF10B126FA04F00543002000F042F8AA
:1049D000641CE4B2082CEFD3284670BD10B500F07B
:1049E0004BF8012000F036F8BDE81040002000F040
:1049F00031B870B500240646802525FA04F0304011
:104A000000D0012000F038F8012000F023F8002049
:104A100000F020F8641CE4B2082CEED370BD10B591
:104A2000012000F029F8012000F014F8002000F027
:104A300023F8BDE81040002000F00CB810B50020AD
:104A400000F01AF8012000F005F8BDE81040012040
:104A500000F012B810B5074B4FF4806108B1012285
:104A600000E000221846FDF738FFBDE810400A209C
:104A7000FDF75FBA000C014010B5074B4FF4006121
:104A800008B1012200E000221846FDF726FFBDE82C
:104A900010400A20FDF74DBA000C014010B5FDF79B
:104AA000EBFF01210C48FEF763FB4AF2A554A0423C
:104AB0000ED00948FEF700FC08B1FDF7A7FA00F098
:104AC0000DF82246BDE8104001210348FEF758BB0F
:104AD000BDE8104000F05AB87C0200201CB5002050
:104AE0000190009011480022017B8DF80410017C98
:104AF0008DF80510017D8DF806100178A1F5FA6199
:104B00008DF8031001798DF80110017E8DF80010E9
:104B1000007A8DF8020001A90548FEF793FC0022F7
:104B200069460348FEF72CFC1CBD000078000020FD
:104B30007C0200201CB5002001900246009001A9D3
:104B40001048FEF74CFB002269460E48FEF720FB9A
:104B50009DF803100C4801F5FA6101609DF8011001
:104B600041609DF8021081609DF80410C1609DF8BD
:104B7000051001619DF8061041619DF800108161EA
:104B80001CBD00007C0200205C0000201CB5002041
:104B90000190009011480022017B8DF80410017CE7
:104BA0008DF80510017D8DF806100178A1F5FA61E8
:104BB0008DF8031001798DF80110017E8DF8001039
:104BC000007A8DF8020001A90548FEF73BFC00229F
:104BD00069460348FEF7D4FB1CBD00005C000020C2
:104BE0007C02002070B5012251031748FDF775FEC5
:104BF000164C0520E06100F022FAFFF74FFF144841
:104C0000FEF750FD4FF4FA752846FDF73BFDFFF720
:104C10000EFB2846FDF736FDFFF7F8F90020FDF7FB
:104C200061F902F05DFD0B4802F0F2FF0A49002035
:104C300008602072012060710A2002F0CAF8BDE805
:104C40007040172002F0C5B8000C014000000020A1
:104C50009002002012080020B00100201CB50022A4
:104C600001210A2004F0E6FA114C002304F120018E
:104C700060641920CDE900014FF400720DA11248C3
:104C800004F056FD00251720CDE900052B468022B3
:104C90000EA1104804F04CFD6572012000F01CF8D4
:104CA0000020656104F0DEF8012002F02FFFFBE731
:104CB000000000207461736B5F737465705F636FD5
:104CC000756E74696E670000AD8600084D616E6197
:104CD000676572007568000808B500238DF800004C
:104CE00003481A466946406C04F03CFB08BD0000CE
:104CF0000000002070B52B4C0025A069401CA0616D
:104D0000E068401CE060B0F57A7F0CD3E560206974
:104D1000401C2061A5716078012807D12561E079E8
:104D2000401CE07102E0A07900B1E571E169206901
:104D3000012688420AD3606940B90A2002F05AF875
:104D4000172002F057F825706670A670E0790A28DF
:104D50000AD30A2002F04EF8172002F04BF8257013
:104D6000E571A6720220A070207A401C2072207883
:104D700008B1FFF733F9FFF7F1F80B480078012885
:104D800001D1FDF7FDF809480168B1F5FA6F08DBBC
:104D90000560BDE8704000224FF400510448FDF763
:104DA0009CBD70BD00000020AE00002098000020D7
:104DB000000C014001490120887170479C000020CF
:104DC00030B5154803681868C043800623D4586876
:104DD0000024C1B211480125027822B1012A07D06E
:104DE000022A11D014E0FF2912D1057044700FE09F
:104DF0000A4C4278E41DA154521CD1B241700429DE
:104E000006D30221017003E0FE2901D104708570F0
:104E10006FF02000186030BD68030020BE01002044
:104E2000FEE7000010B50021074C0A46002004EB05
:104E3000C1131A54401CC0B28028FAD3491CC9B20D
:104E40000829F3D310BD0000F8030020F0B57F2837
:104E50002AD83F2928D88418802C02D9C0F1800292
:104E6000D2B2CC18402C02D9C1F14003DBB20126EA
:104E7000DFF838E087180B4414E001F0070206FA67
:104E800002F5CA0804460EEBC21207E012F804C08D
:104E90002CEA050C02F804C0641CE4B2A742F5D861
:104EA000491CC9B28B42E8D8F0BD0000F8030020CD
:104EB0002DE9F04F1E464FF0000904460D461746F7
:104EC000C846B1420ED1BC4208DD2746144605E073
:104ED0002946E0B200F05EF8641C24B2BC42F7DD63
:104EE000BDE8F08FBC420DD1B54208DD1D460E462F
:104EF00005E0E9B2204600F04DF86D1C2DB2B54238
:104F0000F7DDEDE703DD274614461D460E46B542A4
:104F100003DD6D4276424FF00109701B391B884258
:104F200007DD20462C4605463846374606464FF0F4
:104F30000108701B391B421A4FEA400B4FEA420A24
:104F4000C1EB40061AE06042C1B203E06842C1B260
:104F500003E0E1B2E8B201E0E9B2E0B200F01AF831
:104F6000BC42BDDA641C24B2002E02DA06EB0B0050
:104F700003E06D1C2DB206EB0A0006B2B9F1000F7A
:104F800003D0B8F1000FE1D0DDE7B8F1000FE3D0B6
:104F9000DFE7000010B57F280CD83F290AD8064A61
:104FA000CB0802EBC31301F007041A5C0121A140F6
:104FB0000A431A5410BD0000F803002010B5012068
:104FC00000F00EFABDE81040012000F015BA70B5EF
:104FD00000240646802525FA04F0304000D0012048
:104FE00000F00AFA012000F0FBF9002000F0F8F9C7
:104FF000641CE4B2082CEED3012000F0F1F9BDE806
:105000007040002000F0ECB910B5012000F0F4F978
:10501000012000F0E5F9002000F0EEF9BDE81040B5
:10502000002000F0DDB910B5002000F0E5F9012006
:1050300000F0D6F9BDE81040012000F0DDB910B550
:10504000FFF7BCFFAE2000F0E3F9D52000F0E0F957
:10505000802000F0DDF9A82000F0DAF93F2000F010
:10506000D7F9D32000F0D4F9002000F0D1F9402086
:1050700000F0CEF9A12000F0CBF9C82000F0C8F96B
:10508000DA2000F0C5F9122000F0C2F9812000F00A
:10509000BFF9CF2000F0BCF9D92000F0B9F9F12018
:1050A00000F0B6F9DB2000F0B3F9302000F0B0F9E1
:1050B000A42000F0ADF9A62000F0AAF98D2000F0A0
:1050C000A7F9142000F0A4F9BDE81040AF2000F0CB
:1050D0009FB90246012000E05043491EFCD27047B0
:1050E0000FB470B588B014460D46064610AA68463F
:1050F0000F99FBF747F923466A462946304600F0E8
:1051000044F908B070BC5DF814FB0000F0B57F28CE
:105110002AD83F2928D88418802C02D9C0F18002CF
:10512000D2B2CC18402C02D9C1F14003DBB2012627
:10513000DFF838E087180B4414E001F0070206FAA4
:1051400002F5CA0804460EEBC21207E012F804C0CA
:105150008CEA050C02F804C0641CE4B2A742F5D83E
:10516000491CC9B28B42E8D8F0BD0000F80300200A
:1051700010B50C4640F0B00000F04AF9102040EAAB
:10518000141000F045F904F00F00BDE8104000F0E5
:105190003FB9000008B5082B10D0062B17D00C2BF8
:1051A00021D00E2B1ED1154BC2EBC20203EBC20263
:1051B000A2F5E0621C2300920E2211E0104B03EBDB
:1051C0000212A2F5007210230092082208E00D4B93
:1051D00002EB420203EB4202C03A0092082306228D
:1051E00000F058F808BD084B02EBC20203EB820244
:1051F000A2F59062182300920C22F1E772C1000818
:10520000ECAB0008DCB1000816B400082DE9FC5F27
:10521000002490468B4682462546DFF87090019424
:105220002EE001A90855641CE4B2032C26D3002407
:10523000264606E0384601A9FBF748F958B1761C26
:10524000F6B206EBC60109EB8100074610A1FBF799
:105250003DF90028EED1681C0321B0FBF1F10AEB07
:10526000011006EBC60209EB8201091D103810235C
:105270000091C0B21A46594600F00CF86D1CEDB210
:1052800018F805000028CCD1BDE8FC9F3AD60008EC
:10529000000000002DE9FC4F1F4615460C4606464F
:1052A0007F284AD83F2C48D8FFF7D0FD781EC11779
:1052B000002300EB51700121DFF884B004F00709EE
:1052C00001EBE00737E0002031E031187F2930D8CA
:1052D00003EBD40ABAF1070F2FD80BEBCA1E03FB5E
:1052E00005F21EF801C00192DDF82C808044CDF853
:1052F000008012F8082002FA09F24CEA020C0AF1C6
:1053000001020EF801C0072A0FD80EEB0108DDE9F3
:1053100000C198F8802011F80CC0C9F108012CFADE
:1053200001FC42EA0C0288F88020401CC0B2A8426E
:10533000CBD35B1CDBB29F42C5DCBDE8FC8F000019
:10534000F80300202DE9F04700241D4690468A46C8
:1053500081460A27089E14E0291B0A20491EFFF7F0
:10536000B8FEB8FBF0F0B0FBF7F107FB110204FB4D
:105370000690C0B2334651463032FFF70BFF641C33
:10538000E4B2AC42E8D3BDE8F0872DE9F0411E4617
:10539000154688460746002408E004FB0670C0B2A4
:1053A00033464146FFF7F6FE641CE4B22A5D002A4C
:1053B000F3D1BDE8F081000070B5084D0024002154
:1053C0002046FFF7D5FE05EBC410802100F031F830
:1053D000641CE4B2082CF2D370BD0000F803002076
:1053E000044B4FF4807108B1012200E000221846FE
:1053F000FDF773BA000C0140044B4FF4007108B183
:10540000012200E000221846FDF767BA000C0140B7
:1054100010B50446FFF7F8FD7820FFF7D8FD00200F
:10542000FFF7D5FD2046FFF7D2FDBDE81040FFF79E
:10543000FABD70B50D460646FFF7E6FD7820FFF78A
:10544000C6FD4020FFF7C3FD002404E0305DFFF7F8
:10545000BEFD641CE4B2AC42F8D3BDE87040FFF777
:10546000E2BD20BF00BF704710B503F055FEFFF747
:10547000D9FCFFF7A1FF214C206A03F0FFFD607A01
:1054800009280BD2DFE800F00A05072D2F3133354C
:105490003700606A00E0A06A03F0F0FDFEF750F804
:1054A0001748FEF72BF900201649012202FA00F3F3
:1054B0000B60401C1028F9DB13480268536843F066
:1054C000100353604FF400320A600068416821F015
:1054D000100141600D48016841F00401016072B69D
:1054E00010BDE06AD8E7206BD6E7606BD4E7A06B0D
:1054F000D2E7E06BD0E7206CCEE700000000002090
:1055000090020020140401407C0200200070004042
:10551000010901EB810100F00F0000EB4100C0B276
:105520007047002102E00A38C0B2491C0A28FAD2AA
:10553000090740EA116070472DE9F0410446002553
:10554000C07B627BA37B42E0012A16D0032A14D0E1
:10555000052A12D0072A10D0082A0ED00A2A0CD009
:105560000C2A0AD0042A10D0062A0ED0092A0CD000
:105570000B2A0AD0022A0DD028E01F2B0CD30C2AAC
:1055800005D101221346401C20E01E2B04D3012329
:10559000521C1BE01C2B02D203F1010316E011D1B7
:1055A00083B29E0710D16426B3FBF6F706FB1736CD
:1055B00036B94FF4C876B3FBF6F706FB17331BB9C1
:1055C0001D2303E01D2B01D1032201236D1C8D42FD
:1055D000BAD3D1B2E0736173DAB2A27300F050F8BB
:1055E0002073BDE8F08170B50446FDF77BF90546F0
:1055F0004FF47A7606E0FDF775F9401BB04201D909
:10560000032070BD206840688006F4D5206841689A
:1056100041F010014160002070BD000070B50446EB
:105620000068416821F010014160FDF75BF9054613
:105630004FF47A7607E000BFFDF754F9401BB04203
:1056400001D9032070BD206840688006F4D5002091
:1056500070BD0168086A496A89B241EA0040704732
:10566000006881698AB2C1698BB2816989B28A4254
:1056700003D0C06961F31F40704743EA024070479E
:10568000F0B56424C1EBC1030927A500072603EB8D
:1056900001130329B3FBF7F100F5FA60114401444B
:1056A0000AD2401EB0FBF4F201EB9001B0FBF5F022
:1056B000891A0844001D08E0B0FBF4F201EB9001E8
:1056C000B0FBF5F0891A0844801CB0FBF6F106FB2C
:1056D0001100C0B2F0BD70B50D4606460024FFF7BC
:1056E00082FF48B93168280C08623168A8B2486264
:1056F0003046FFF793FF00B10124204670BD70B51E
:105700000D4606460024FFF76EFF48B93168280CA5
:1057100088613168A8B2C8613046FFF77FFF00B1E9
:105720000124204670BD00000E4810B500214170D4
:10573000C1600161816100F021FF0B48FDF7B2FFFC
:1057400004F03EF9FDF7F2FE084902200860FEF77A
:1057500073FC62B6FFF773FCFEF769FDBDE810400D
:10576000FEF754BC00000020900200201404014009
:105770002DE9F0411E4E01271E4C1F4DFEF706FC81
:10578000287038B33178012901D019B122E01B48C3
:1057900007701FE01A4A002102281160194A11609F
:1057A00004D001280BD003281FD013E001210220D0
:1057B000FCF7B0FBA06820280CDBA76008E0002104
:1057C0000220FCF7A7FBA068002803DC1F20A060D4
:1057D000FFF7DCF900F096FD10231A463021202057
:1057E000FFF794FCFFF7E8FDC8E70020BDE8F08173
:1057F000020000205C000020AB000020040000201C
:105800000C000020100000202DE9F0411E4E002762
:105810001E4C1F4DFEF7BAFB287038B331780129B2
:1058200001D021B122E01B49012008701EE01A4975
:1058300002280F6019490F6004D001280BD00328FB
:105840001FD013E001210320FCF764FBE068182857
:105850000CDBE76008E000210320FCF75BFBE0685D
:10586000002803DA1720E060FFF790F900F092FDBE
:1058700010231A4600212020FFF748FCFFF79CFD6B
:10588000C8E70020BDE8F081020000205C00002095
:10589000AB000020040000200C00002010000020BD
:1058A0002DE9F0411E4E00271E4C1F4DFEF76EFBEA
:1058B000287038B33178012901D021B122E01B4989
:1058C000012008701EE01A4902280F6019490F6074
:1058D00004D001280BD003281FD013E0012104209D
:1058E000FCF718FB20693C280CDB276108E000214D
:1058F0000420FCF70FFB2069002803DA3B2020611D
:10590000FFF744F900F046FD10231A4619462020FF
:10591000FFF7FCFBFFF750FDC8E70020BDE8F08172
:10592000020000205C000020AB00002004000020EA
:105930000C000020100000202DE9F0411E4E012730
:105940001E4C1F4DFEF722FB287038B33178012919
:1059500001D019B122E01B4807701FE01A4A00214C
:1059600002281160194A116004D001280BD00328C5
:105970001FD013E001210846FCF7CCFA60680D281F
:105980000CDB676008E000210120FCF7C3FA6068C7
:10599000002803DC0C206060FFF7F8F800F0B2FC90
:1059A000102320211A460846FFF7B0FBFFF704FD3D
:1059B000C8E70020BDE8F081020000205C00002064
:1059C000AB000020040000200C000020100000208C
:1059D0002DE9F0411E4E00271E4C1F4DFEF7D6FA52
:1059E000287038B33178012901D021B122E01B4958
:1059F000012008701EE01A4902280F6019490F6043
:105A000004D001280BD003281FD013E0012105206A
:105A1000FCF780FA60693C280CDB676108E0002134
:105A20000520FCF777FA6069002803DA3B20606103
:105A3000FFF7ACF800F0AEFC102320211A46084610
:105A4000FFF764FBFFF7B8FCC8E70020BDE8F08172
:105A5000020000205C000020AB00002004000020B9
:105A60000C000020100000204A4E01274A4D4B4CEC
:105A7000FEF78CFA287008B33178012901D019B1EA
:105A800046E04748077043E0464A0021012811607C
:105A9000454A116004D002280AD003280FD037E00D
:105AA0002068401E2060002832DC072020602FE0A4
:105AB0002068401C206008282ADB276028E0FFF7C8
:105AC000B1F9FFF779FC207801280CD002280ED01C
:105AD00003280FD0042810D0052811D0062812D092
